:100000000C94801E0C9442000C9444000C94460006
:100010000C9448000C944A000C944C000C944E0034
:100020000C9450000C9452000C9454000C94560004
:100030000C9458000C945A000C945C000C945E00D4
:100040000C9460000C9462000C9464000C946600A4
:1000500008950C9400000895E1E6F0E090E89083A4
:1000600080830895A895E0E6F0E088E1808389E246
:0400700080830895EC
:100080000C94801E0C94921E0C94921E0C94921E42
:100090000C94921E0C94921E0C94921E0C94921E20
:1000A0000C94921E0C94921E0C94921E0C94921E10
:1000B0000C94921E0C94921E0C94921E0C94921E00
:1000C0000C94921E0C94921E0C94921E0C94921EF0
:103D000011241FBECEEFD2E0DEBFCDBF11E0A0E098
:103D1000B1E001C01D92A03AB107E1F70E94A91FCE
:103D20000C94F51F0C942900CF93DF932091BA00D7
:103D30008EB3833009F4E2C0843030F48130F9F07E
:103D4000823008F04FC009C0853031F1853008F469
:103D5000CEC0863009F0F5C0C5C0822F8695853368
:103D600009F0C8C020FF08C083E08EBB81E88093C3
:103D7000060110921C01B1C081E08EBBAEC08AB5B5
:103D8000882311F485E004C08AB5813011F482E003
:103D90008EBB20982898D5C01EBA213031F42ABD98
:103DA0001BBC109201012EBB07C0223039F41ABC93
:103DB00081E080931D018EBB80E00CC0233031F484
:103DC00081E08ABD8BBD10920101F5CF1ABC81E064
:103DD0008EBB80E8289A209A8093BA008EE0809368
:103DE000B900AFC091E09EBB9ABD809101018823CC
:103DF00029F420930401909301016FC08130D1F424
:103E00009091040180E030E0822B932B909303018A
:103E1000809302011092050180E291E090931F01CE
:103E200080931E018BB5813009F457C082E08093E6
:103E3000010153C0E0911E01F0911F012193F09305
:103E40001F01E0931E01809105018F5F80930501A2
:103E500087FF43C040910201509103014078411512
:103E6000510509F43AC08DE34030580708F035C0D9
:103E700083E0FA0180935700E89507B600FCFDCF78
:103E800081E187BFE89507B600FCFDCFBA01C0E22B
:103E9000D1E0A1E00FC0888190E0398120E0822B41
:103EA000932BFB010C01A0935700E89511246E5F42
:103EB0007F4F2296F1E0C03ADF0769F785E0FA010B
:103EC00080935700E89507B600FCFDCF81E187BFDE
:103ED000E89507B600FCFDCFA895289A209A109285
:103EE000BA007CCF84E08EBB2098289877CF20FF43
:103EF00005C01EBA88EA8093B80023C086E08EBB56
:103F0000289A209A8BB5882381F082E08BBDE091BE
:103F10000201F09103013196F0930301E093020155
:103F20003197E491E093BA000CC080911C01E82F16
:103F3000F0E0EA5FFE4F90819093BA008F5F80932C
:103F40001C018091B90080648093B900DF91CF910A
:103F500008958DE38093640080E880BF20982898BE
:103F6000229A2A9A88E38093B80080EF8093B90060
:103F70000E94320085E00E942C0090E8E92E80EE3D
:103F8000F82E08E310E2C0E4D0E08091B90087FF8A
:103F90000BC0E0926100109261001A99FECF1EBA28
:103FA000F092B9000093B8008091B90086FF02C07A
:103FB0000E94941E8091B90085FF15C01093B9002E
:103FC00080911D01882331F014B81092B800FE01D1
:103FD000099502C01EBA1ABC8BB5823009F41BBC0D
:0E3FE00085E00E942C00A895D0CFF894FFCF6A
:0400000300003D00BC
:00000001FF
