:100000000C94801E0C9442000C9444000C94460006
:100010000C9448000C944A000C944C000C944E0034
:100020000C9450000C9452000C9454000C94560004
:100030000C9458000C945A000C945C000C945E00D4
:100040000C9460000C9462000C9464000C946600A4
:1000500008950C9400000895E1E6F0E090E89083A4
:1000600080830895A895E0E6F0E088E1808389E246
:0400700080830895EC
:100080000C94801E0C94921E0C94921E0C94921E42
:100090000C94921E0C94921E0C94921E0C94921E20
:1000A0000C94921E0C94921E0C94921E0C94921E10
:1000B0000C94921E0C94921E0C94921E0C94921E00
:1000C0000C94921E0C94921E0C94921E0C94921EF0
:103D000011241FBECEEFD2E0DEBFCDBF11E0A0E098
:103D1000B1E001C01D92A03AB107E1F70E94A71FD0
:103D20000C94EF1F0C9429000F931F93CF93409195
:103D3000BA008EB3833009F4DEC028F48130E9F094
:103D400008F04EC008C0853029F108F4CDC0863097
:103D500009F0F4C0C4C0842F8695853309F0C7C02C
:103D600040FF08C083E08EBB81E880930101109280
:103D70001701B0C081E08EBBADC08AB5811102C011
:103D800085E004C08AB5813011F482E08EBB2098B2
:103D90002898D4C01EBA413031F44ABD1BBC1092E1
:103DA00018014EBB07C0423039F41ABC81E0809341
:103DB0001D018EBB80E00CC0433031F481E08ABD30
:103DC0008BBD10921801F5CF1ABC81E08EBB80E844
:103DD000289A209A8093BA008EE08093B900AEC0F2
:103DE00081E08EBB8ABD90911801911103C0409370
:103DF000190117C09130C1F49091190180E0842B12
:103E000090931B0180931A0110921C0180E291E0B3
:103E100090931F0180931E018BB5813009F45AC025
:103E200082E08093180156C0E0911E01F0911F01BD
:103E30004193F0931F01E0931E0180911C018F5F5D
:103E400080931C0187FF46C080911A0190911B014D
:103E50008078009709F43EC081150DE3900708F0C3
:103E600039C043E0FC0140935700E89507B600FCD9
:103E7000FDCF41E147BFE89507B600FCFDCFA0E2CA
:103E8000B1E0AC014A1B5B0BC1E00EC06C91119616
:103E90003C91119720E08901062BB8010B01C093DA
:103EA0005700E89511241296FD01E40FF51F11E06B
:103EB000A03AB10759F725E0FC0120935700E89597
:103EC00007B600FCFDCF81E187BFE89507B600FC8F
:103ED000FDCFA895289A209A1092BA007DCF84E051
:103EE0008EBB2098289878CF40FF05C01EBA88EA7C
:103EF0008093B80023C086E08EBB289A209A8BB5A9
:103F0000882381F082E08BBDE0911A01F0911B01C2
:103F1000CF01019690931B0180931A01E491E093E5
:103F2000BA000CC080911701E82FF0E0EF5FFE4F60
:103F300090819093BA008F5F809317018091B900B0
:103F400080648093B900CF911F910F9108958DE304
:103F50008093640080E880BF20982898229A2A9A4B
:103F600088E38093B80080EF8093B9000E9432000C
:103F700085E00E942C00C0E8D0EE18E300E28091BA
:103F8000B90087FF0BC0C0936100109261001A99BD
:103F9000FECF1EBAD093B9001093B8008091B9003B
:103FA00086FD0E94941E8091B90085FF16C0009383
:103FB000B90080911D01882339F014B81092B8001F
:103FC000E0E4F0E0099502C01EBA1ABC8BB582305D
:103FD00009F41BBC85E00E942C00A895D0CFF89472
:023FE000FFCF11
:0400000300003D00BC
:00000001FF
